:100000000C9463000C948B000C948B000C948B006C
:100010000C948B000C948B000C948B000C948B0034
:100020000C948B000C948B000C948B000C948B0024
:100030000C948B000C948B000C948B000C948B0014
:100040000C94D4010C948B000C9481030C94B20397
:100050000C948B000C948B000C948B000C948B00F4
:100060000C948B000C948B000000000024002700EF
:100070002A0000000000250028002B0000000000DE
:1000800023002600290004040404040404040202DA
:100090000202020203030303030301020408102007
:1000A0004080010204081020010204081020000012
:1000B0000007000201000003040600000000000029
:1000C0000000CE01880411241FBECFEFD8E0DEBFB0
:1000D000CDBF11E0A0E0B1E0EEEAFAE102C0059088
:1000E0000D92A03FB107D9F712E0A0EFB1E001C037
:1000F0001D92AB3AB107E1F710E0C6ECD0E004C0C6
:100100002297FE010E94510DC23CD107C9F70E94FF
:10011000C5040C940B080C940000CF93DF93CCE83B
:10012000D2E0CE0140E855E260E070E00E94F903C1
:10013000CE0160E071E00E942F05DF91CF9108951C
:10014000DF93CF93CDB7DEB7C058D0400FB6F89449
:10015000DEBF0FBECDBF60ED77E080E090E00E9493
:100160005C028CE892E063E171E00E940F0580EF91
:1001700091E00E94C4068430910509F4F5C08530F1
:10018000910564F48230910509F4E4C0833091054F
:100190000CF0E5C08130910569F4D7C08630910537
:1001A00009F492C0863091050CF4E3C087309105C4
:1001B00009F4E4C08CE892E066E271E00E940F0569
:1001C0006091F9017091FA01882777FD8095982F49
:1001D0000E94350920E030E040E251E40E949A0894
:1001E000AB01BC018CE892E022E030E00E949C066A
:1001F0008CE892E060E371E00E940F056091F701E6
:100200007091F801882777FD8095982F0E94350915
:1002100020E030E040E251E40E949A08AB01BC01CA
:100220008CE892E022E030E00E949C068CE892E0AC
:1002300063E371E00E942F058091F9019091FA012A
:100240002091F7013091F8014DB75EB74C50504006
:100250000FB6F8945EBF0FBE4DBFEDB7FEB7319637
:10026000AE014F5F5F4FADB7BEB712965C934E9332
:10027000119745E351E0538342836AE070E00E94A6
:10028000E30C7583648397FF03C0909581959F4F1E
:1002900097838683C9016AE070E00E94E30C71874E
:1002A0006087938782870E940E084DB75EB7445FD0
:1002B0005F4F0FB6F8945EBF0FBE4DBF8CE892E063
:1002C000BE016F5F7F4F5EC08CE892E06BE771E02C
:1002D0000E940F056091F9017091FA01882777FD5E
:1002E0008095982F0E94350920E030E040E251E4EB
:1002F0000E949A08AB01BC018CE892E022E030E059
:100300000E949C068CE892E060E371E00E940F0579
:100310006091F7017091F801882777FD8095982FFB
:100320000E94350920E030E040E251E40E949A0842
:10033000AB01BC018CE892E022E030E00E949C0618
:100340008CE892E063E371E01DC08CE892E06CE819
:1003500071E018C08CE892E066E971E013C08CE8A7
:1003600092E063EA71E00EC08CE892E061EB71E02C
:1003700009C08CE892E06FEB71E004C08CE892E079
:100380006DEC71E00E942F05C058DF4F0FB6F89456
:10039000DEBF0FBECDBFCF91DF91089580EF91E01A
:1003A00067E00E949F0608951F920F920FB60F926A
:1003B00011242F933F934F935F936F937F938F936A
:1003C0009F93AF93BF932091FF0130910002409122
:1003D00001025091020270910302DA01C9010296F2
:1003E000A11DB11D672F6A5F6D3730F06D57DA01BF
:1003F000C9010396A11DB11D609303028093FF0103
:1004000090930002A0930102B09302028091FB013D
:100410009091FC01A091FD01B091FE010196A11DFA
:10042000B11D8093FB019093FC01A093FD01B0935B
:10043000FE01BF91AF919F918F917F916F915F91DD
:100440004F913F912F910F900FBE0F901F901895D5
:100450008FB7F8942091FF01309100024091010282
:10046000509102028FBFB901CA0108959FB7F89455
:100470002091FB013091FC014091FD015091FE0162
:1004800086B5A89B06C08F3F21F02F5F3F4F4F4F8F
:100490005F4F9FBF542F432F322F2227280F311D2C
:1004A000411D511D83E0220F331F441F551F8A95A4
:1004B000D1F7B901CA010895EF92FF920F931F93EC
:1004C000CF93DF937B018C010E943602EB010FC0BA
:1004D0000E9436026C1B7D0B83E0683E780738F083
:1004E0000894E108F10801091109C851DC4FE11431
:1004F000F1040105110561F7DF91CF911F910F9173
:10050000FF90EF900895019739F0019729F0880F37
:10051000991F01970197F1F70895789484B5826047
:1005200084BD84B5816084BD85B5826085BD85B597
:10053000816085BDEEE6F0E0808181608083E1E846
:10054000F0E010828081826080838081816080837E
:10055000E0E8F0E0808181608083E1EBF0E0808181
:1005600084608083E0EBF0E0808181608083EAE753
:10057000F0E08081846080838081826080838081DC
:10058000816080838081806880831092C10008959B
:10059000FC0184859585FC01E05CFF4F2081318161
:1005A0008E5B9F4FFC0180819181281B390B2F733B
:1005B0003070C9010895FC0184859585FC01E05CDB
:1005C000FF4F40815181FC01EE5BFF4F2081318163
:1005D0004217530741F00190F081E02DE80FF91F19
:1005E000208130E002C02FEF3FEFC9010895FC01E8
:1005F00084859585FC01E05CFF4F40815181FC01C1
:10060000EE5BFF4F208131814217530771F0A081CB
:10061000B181A80FB91F2C918081918101968F73B0
:1006200090709183808330E002C02FEF3FEFC901CB
:100630000895DC011E968D919C911F97FC01E05C52
:10064000FF4F8E5B9F4F40815181DC012D913C918A
:10065000119742175307B9F708951F93FC01162FFE
:1006600026853785D901A05CBF4F8D919C9101965D
:1006700060E470E00E94E30CD901AE5BBF4F4D9186
:100680005C91119784179507D1F3D901A05CBF4FF6
:100690000D90BC91A02DA20FB31F1C93A685B7850A
:1006A000A05CBF4F11969C938E93A689B7892C911D
:1006B00081E090E0058C02C0880F991F0A94E2F750
:1006C000282B2C9381E090E01F910895FB01E05CC2
:1006D000FF4F208131812F5F3F4F2F733070DB013F
:1006E000AE5BBF4F4D915C9111972417350739F0E0
:1006F000A081B181A60FB71F8C9331832083089509
:1007000008951F920F920FB60F9211242F933F93CB
:100710004F935F936F937F938F939F93AF93BF9309
:10072000EF93FF938091C60064E072E00E9466033D
:10073000FF91EF91BF91AF919F918F917F916F91B9
:100740005F914F913F912F910F900FBE0F901F908F
:1007500018958CE892E00E94C802009711F00E9460
:10076000800308951F920F920FB60F9211242F93BA
:100770003F935F936F937F938F939F93AF93BF93B9
:10078000EF93FF93209188023091890280918A0231
:1007900090918B022817390731F48091C1008F7D29
:1007A0008093C10016C0E0918A02F0918B02E85B51
:1007B000FD4F208180918A0290918B02019660E426
:1007C00070E00E94E30C90938B0280938A02209346
:1007D000C600FF91EF91BF91AF919F918F917F9153
:1007E0006F915F913F912F910F900FBE0F901F90CF
:1007F00018959F92AF92BF92CF92DF92EF92FF92A5
:100800000F931F93CF93DF93EC017A018B0199240F
:100810009394EC89FD8981E090E00E8C02C0880FF2
:10082000991F0A94E2F7808360E874E88EE190E013
:10083000A80197010E94F60C2150304040405040E2
:10084000569547953795279590E4A92E92E4B92EB1
:100850009FE0C92ED12C12C09924EC89FD89108209
:10086000C601B501A80197010E94F60C2150304045
:1008700040405040569547953795279580E1203068
:10088000380710F0992041F7E889F9893083EA891F
:10089000FB892083EE89FF89408181E090E09C0103
:1008A0000A8C02C0220F331F0A94E2F7422B4083C6
:1008B000EE89FF8940819C010B8C02C0220F331FFF
:1008C0000A94E2F7422B4083EE89FF8940819C0124
:1008D0000C8C02C0220F331F0A94E2F7422B408394
:1008E000EE89FF8920810D8C02C0880F991F0A9420
:1008F000E2F7809582238083DF91CF911F910F9142
:10090000FF90EF90DF90CF90BF90AF909F900895B1
:1009100010928F0210928E0288EE93E0A0E0B0E079
:100920008093900290939102A0939202B0939302CD
:10093000EEE8F2E084EE91E09293829384E092E01C
:100940009587848788E492E09787868785EC90E096
:10095000918B808B84EC90E0938B828B80EC90E089
:10096000958B848B81EC90E0978B868B86EC90E066
:10097000918F808F84E0828F83E0838F87E0848FE4
:1009800085E0858F81E0868F0895CF93DF930E9465
:100990008D020E948D00C9EAD3E00E94A00020973A
:1009A000E1F30E94A903F9CFCF92DF92EF92FF9279
:1009B0000F931F93CF93DF936C017B018A01C0E0FB
:1009C000D0E00FC0D7016D917D01D601ED91FC9172
:1009D0000190F081E02DC6010995C80FD91F015083
:1009E00010400115110571F7CE01DF91CF911F91D4
:1009F0000F91FF90EF90DF90CF900895DB010D9065
:100A00000020E9F7AD0141505040461B570BDC0177
:100A1000ED91FC910280F381E02D099508950E94EB
:100A2000FE040895DC01ED91FC910190F081E02D30
:100A3000099508950F931F93CF93DF93EC016DE019
:100A40000E9412058C01CE016AE00E941205080F77
:100A5000191FC801DF91CF911F910F9108950F9336
:100A60001F93CF93DF93EC010E94FE048C01CE0113
:100A70000E941A05080F191FC801DF91CF911F911D
:100A80000F9108958F929F92AF92BF92CF92DF9273
:100A9000EF92FF920F931F93DF93CF93CDB7DEB703
:100AA000A1970FB6F894DEBF0FBECDBF6C01042F27
:100AB000E52FCB01122F19A2223008F41AE021E20F
:100AC000E22EF12CEC0EFD1E812E9924AA24BB24CB
:100AD00003C0022FE32FCA01602F7E2FA5019401CE
:100AE0000E94F60C129F802D1124081B0894E10827
:100AF000F1080A3014F4005D01C0095CF7010083BD
:100B0000211531054105510521F7C601B7010E94A4
:100B1000FE04A1960FB6F894DEBF0FBECDBFCF91F5
:100B2000DF911F910F91FF90EF90DF90CF90BF90DA
:100B3000AF909F908F9008952115310549F4DC0105
:100B4000ED91FC910190F081E02D642F09950895BD
:100B50000E9442050895CF92DF92EF92FF920F9389
:100B60001F93CF93DF93EC017A018B01211531059F
:100B700041F4E881F9810190F081E02D642F09951D
:100B80001AC02A303105A9F477FF12C06DE20E9425
:100B900012056C0144275527BA014E195F09600BF5
:100BA000710BCE012AE00E944205C80ED91E04C076
:100BB0002AE00E9442056C01C601DF91CF911F918E
:100BC0000F91FF90EF90DF90CF9008956F927F92FA
:100BD0009F92AF92BF92CF92DF92EF92FF920F93CC
:100BE0001F93CF93DF933C017A018B01C22ECB017F
:100BF000BA0120E030E0A9010E94960887FF0AC0F0
:100C0000C3016DE20E941205EC0117FB109517F964
:100C1000109502C0C0E0D0E0DD2450E040E030E0BC
:100C20002FE311C0DA01F9016B2F742F8F2F922F50
:100C300020E030E040E251E40E949A08562F472F0E
:100C4000382F292FD394DC1468F3C801B701DA01D7
:100C5000F9012B2F342F4F2F5E2F0E9432085B019A
:100C6000F82E992E7B2D0E940709162FD72EE82EDD
:100C7000092F0E9433099B01AC016A2D7B2D8F2D1A
:100C8000992D0E943108962EA72EB82EF92EC30159
:100C9000412F5D2D6E2D702F2AE030E00E949C05C3
:100CA000C80FD91FCC20B9F1C3016EED71E00E94CD
:100CB000FE04C80FD91F2FC0692D7A2D8B2D9F2DB3
:100CC00020E030E040E251E40E94E509D62EB72E44
:100CD000A82E992E0E9402097B010027F7FC00959F
:100CE000102FC301B801A7012AE030E00E94AB0534
:100CF000C80FD91FC801B7010E9435099B01AC017B
:100D00006D2D7B2D8A2D992D0E943108962EA72EB0
:100D1000B82EF92ECA94CC2079F6CE01DF91CF916E
:100D20001F910F91FF90EF90DF90CF90BF90AF9009
:100D30009F907F906F9008950E94E6050895CF934D
:100D4000DF93EC0170E0FB01E656FF4FE491E8838E
:100D5000FB01EA57FF4FE491F0E0EE0FFF1FE4586C
:100D6000FF4F8591949189839A830E9428026B8317
:100D70007C838D839E838DE19CEF98878F839A87F8
:100D80008987DF91CF9108954F925F926F927F9202
:100D90008F929F92AF92BF92CF92DF92EF92FF928B
:100DA0000F931F93DF93CF93CDB7DEB7AA970FB6FC
:100DB000F894DEBF0FBECDBF7C01FC01D080018165
:100DC00012810E9428025E010894A11CB11C5AE203
:100DD000852E912C8C0E9D1EF5011192E815F905BA
:100DE000E1F7F70123813481458156812B013C01D4
:100DF000421A530A640A750AA3019201203DA7E032
:100E00003A07A0E04A07A0E05A0708F4D8C0638375
:100E1000748385839683F894F8018181CD2CC094E6
:100E20008C21818378944EE7742E03C07A9409F460
:100E3000C9C082E090E00E948302F80180818D2188
:100E4000A9F3F89482818C21828381818D29818309
:100E500078948CE494E00E948302F894F8018181F4
:100E60008C21818378943AE1C32E03C0CA9409F49B
:100E7000ACC082E090E00E948302F80180818D2165
:100E8000A9F323E3C22E03C0CA9409F4A1C082E0EF
:100E900090E00E948302F80180818D21A9F794E2FD
:100EA000C92E03C0CA9409F496C082E090E00E9463
:100EB0008302F80180818D21A9F320E003C0233350
:100EC00009F48CC02F5F82E090E02AA70E94830281
:100ED000F80180818D212AA5882389F7F5012193C6
:100EE0005F01E815F905D9F6FE0132968FE090E032
:100EF00040E050E021E030E061916C3048F0B90111
:100F0000082E02C0660F771F0A94E2F7462B572B74
:100F100001976FEF8F3F960779F7FE0172968FE08A
:100F200090E020E030E061E070E0A191AC3048F06A
:100F3000DB01082E02C0AA0FBB1F0A94E2F72A2B7E
:100F40003B2B0197AFEF8F3F9A0779F7FE01B296DF
:100F500087E090E060E0A1E0B0E071917C3040F08B
:100F60008D01082E02C0000F111F0A94E2F7602BBA
:100F700001977FEF8F3F970781F7CA019F77F701AE
:100F80009087878337FF08C088279927821B930B98
:100F90009F779287818703C0F7013287218770E0AE
:100FA000842F90E0850F911D820F911D830F911D5D
:100FB000907068177907A9F420E030E014C027E0AA
:100FC00030E011C021E030E00EC022E030E00BC084
:100FD00023E030E008C024E030E005C025E030E048
:100FE00002C026E030E0C901AA960FB6F894DEBF31
:100FF0000FBECDBFCF91DF911F910F91FF90EF906A
:10100000DF90CF90BF90AF909F908F907F906F9028
:101010005F904F900895F8940C94550DAEE0B0E0B9
:10102000E4E1F8E00C94260D0D891E8986E08C839E
:101030001A8309838FEF9FE79E838D839E01275E2E
:101040003F4FCE0101966F89788DA9010E94480A11
:10105000EF81F885E00FF11F10822E96E4E00C94EA
:10106000420D5058BB27AA270ED075C166D130F06B
:101070006BD120F031F49F3F11F41EF45BC10EF4EC
:10108000E095E7FB51C1E92F77D180F3BA176207EA
:1010900073078407950718F071F49EF58FC10EF45D
:1010A000E0950B2EBA2FA02D0B01B90190010C0178
:1010B000CA01A0011124FF27591B99F0593F50F490
:1010C000503E68F11A16F040A22F232F342F4427E8
:1010D000585FF3CF469537952795A795F0405395E0
:1010E000C9F77EF41F16BA0B620B730B840BBAF0B0
:1010F0009150A1F0FF0FBB1F661F771F881FC2F71B
:101100000EC0BA0F621F731F841F48F4879577952E
:101110006795B795F7959E3F08F0B3CF9395880FE5
:1011200008F09927EE0F979587950895D9D008F480
:1011300081E008950CD00FC107D140F0FED030F00F
:1011400021F45F3F19F0F0C0511139C1F3C014D13F
:1011500098F39923C9F35523B1F3951B550BBB277E
:10116000AA2762177307840738F09F5F5F4F220F2B
:10117000331F441FAA1FA9F333D00E2E3AF0E0E824
:1011800030D091505040E695001CCAF729D0FE2F70
:1011900027D0660F771F881FBB1F26173707480702
:1011A000AB07B0E809F0BB0B802DBF01FF279358B8
:1011B0005F4F2AF09E3F510568F0B6C000C15F3F07
:1011C000ECF3983EDCF3869577956795B795F795A0
:1011D0009F5FC9F7880F911D9695879597F9089598
:1011E000E1E0660F771F881FBB1F62177307840734
:1011F000BA0720F0621B730B840BBA0BEE1F88F743
:10120000E095089504D06894B111D9C00895BCD078
:1012100088F09F5790F0B92F9927B751A0F0D1F0DF
:10122000660F771F881F991F1AF0BA95C9F712C069
:10123000B13081F0C3D0B1E00895C0C0672F782FDE
:101240008827B85F39F0B93FCCF3869577956795D5
:10125000B395D9F73EF490958095709561957F4F41
:101260008F4F9F4F0895E89409C097FB3EF49095E7
:101270008095709561957F4F8F4F9F4F9923A9F06F
:10128000F92F96E9BB279395F695879577956795FE
:10129000B795F111F8CFFAF4BB0F11F460FF1BC042
:1012A0006F5F7F4F8F4F9F4F16C0882311F096E9D5
:1012B00011C0772321F09EE8872F762F05C0662383
:1012C00071F096E8862F70E060E02AF09A95660F3C
:1012D000771F881FDAF7880F9695879597F90895F5
:1012E000990F0008550FAA0BE0E8FEEF1616170637
:1012F000E807F907C0F012161306E407F50798F09F
:10130000621B730B840B950B39F40A2661F0232BB7
:10131000242B252B21F408950A2609F4A140A69533
:101320008FEF811D811D089597F99F6780E870E018
:1013300060E008959FEF80EC089500240A9416164B
:10134000170618060906089500240A9412161306B3
:10135000140605060895092E0394000C11F4882341
:1013600052F0BB0F40F4BF2B11F460FF04C06F5F5D
:101370007F4F8F4F9F4F089557FD9058440F551F33
:1013800059F05F3F71F04795880F97FB991F61F007
:101390009F3F79F087950895121613061406551F7E
:1013A000F2CF4695F1DF08C0161617061806991FEA
:1013B000F1CF86957105610508940895E894BB27DF
:1013C00066277727CB0197F908950BD0C4CFB5DFF7
:1013D00028F0BADF18F0952309F0A6CFABCF11247F
:1013E000EECFCADFA0F3959FD1F3950F50E0551FC4
:1013F000629FF001729FBB27F00DB11D639FAA276A
:10140000F00DB11DAA1F649F6627B00DA11D661FB8
:10141000829F2227B00DA11D621F739FB00DA11DD9
:10142000621F839FA00D611D221F749F3327A00D93
:10143000611D231F849F600D211D822F762F6A2F2F
:1014400011249F5750408AF0E1F088234AF0EE0FB4
:10145000FF1FBB1F661F771F881F91505040A9F7C1
:101460009E3F510570F060CFAACF5F3FECF3983EEE
:10147000DCF3869577956795B795F795E7959F5F28
:10148000C1F7FE2B880F911D9695879597F90895C2
:10149000ACE0B0E0EEE4FAE00C94180D6C011B0136
:1014A0008A01FC0117821682838181FFD1C12E013E
:1014B0000894411C511CF6019381F10193FD859123
:1014C00093FF81911F01882309F4BEC1853239F44D
:1014D00093FD859193FF81911F01853229F490E05E
:1014E000B6010E94450CE7CFEE24FF2420E0203215
:1014F000B0F48B3269F08C3228F4803251F08332B0
:1015000071F40BC08D3239F0803349F421602CC066
:101510002260246029C0286027C0206125C027FDE3
:101520002CC0382F30533A3098F426FF08C08E2D47
:10153000880FE82EEE0CEE0CE80EE30E15C08F2D92
:10154000880FF82EFF0CFF0CF80EF30E20620CC073
:101550008E3221F426FD78C1206406C08C3611F449
:10156000206802C0883649F4F10193FD859193FF0C
:1015700081911F01882309F0BACF982F9554933099
:1015800018F09052933028F40C5F1F4FFFE3F9835B
:101590000DC0833631F0833771F0833509F060C0B8
:1015A00022C0F801808189830E5F1F4F420171E0E4
:1015B000A72EB12C16C062E0662E712C600E711E33
:1015C000F8018080918026FF03C06E2D70E002C07C
:1015D0006FEF7FEFC4012C870E943A0C5C018301FE
:1015E0002C852F7717C052E0652E712C600E711E6E
:1015F000F8018080918026FF03C06E2D70E002C04C
:101600006FEF7FEFC4012C870E942F0C5C012C85AB
:101610002068830123FD20C008C080E290E0B6016D
:101620002C870E94450CFA942C858F2D90E0A816EB
:10163000B90698F311C0F40127FD859127FF819128
:101640004F0190E0B6012C870E94450C2C85F110CB
:10165000FA940894A108B108A114B10461F7F1C08B
:10166000843611F0893649F527FF08C0F8016081FA
:101670007181828193810C5F1F4F09C0F8016081E5
:101680007181882777FD8095982F0E5F1F4F4FE659
:10169000B42EB22297FF09C0909580957095619500
:1016A0007F4F8F4F9F4FF0E8BF2AA2012AE030E022
:1016B0000E94710C782E741845C0853731F43FEEC6
:1016C000B32EB2222AE030E025C099EFB92EB22223
:1016D0008F36C1F0803720F4883509F0B5C00DC0D1
:1016E000803721F0883709F0AFC002C020E1B22A6C
:1016F000B4FE0BC084E0B82A08C0B4FE09C0E6E01E
:10170000BE2A06C028E030E005C020E130E002C07B
:1017100020E132E0B7FE08C0F8016081718182816A
:1017200093810C5F1F4F07C0F8016081718180E0D9
:1017300090E00E5F1F4FA2010E94710C782E74186A
:10174000FFE7BF22B6FE0BC02EEFB2227E1438F4A4
:10175000B4FE07C0B2FC05C08FEEB82202C0A72CB1
:1017600001C0AE2C8B2D90E0B4FE0DC0FE01E70D44
:10177000F11D2081203319F4E9EEBE2209C0A394A3
:10178000B2FE06C004C086789070009709F0A3945A
:101790008B2C9924B3FC14C0B0FE0FC0AF1428F4F6
:1017A000E72CEF0CEA18AF2C08C0E72C06C080E24B
:1017B00090E0B6010E94450CA394AF14C0F304C09E
:1017C000AF1410F4FA1801C0FF2484FE0FC080E3A8
:1017D00090E0B6010E94450C82FE1FC081FE03C04E
:1017E00088E590E010C088E790E00DC0C4018678DD
:1017F0009070009791F081FC02C080E201C08BE202
:10180000B7FC8DE290E0B6010E94450C06C080E373
:1018100090E0B6010E94450CEA947E14C0F37A94DD
:10182000F201E70DF11D808190E0B6010E94450CA8
:101830007720A9F706C080E290E0B6010E94450C2F
:10184000FA94FF20C1F737CEF6012681378102C016
:101850002FEF3FEFC9012C96E2E10C94340DFC010F
:101860000590615070400110D8F7809590958E0FCB
:101870009F1F0895FC016150704001900110D8F73E
:10188000809590958E0F9F1F08950F931F93CF9370
:10189000DF938C01EB018B8181FF1BC082FF0DC0A8
:1018A0002E813F818C819D812817390764F4E8815E
:1018B000F9810193F983E88306C0E885F985802FD3
:1018C0000995009731F48E819F8101969F838E83C5
:1018D00002C00FEF1FEFC801DF91CF911F910F9151
:1018E0000895FA01AA27283051F1203181F1E894B6
:1018F0006F936E7F6E5F7F4F8F4F9F4FAF4FB1E003
:101900003ED0B4E03CD0670F781F891F9A1FA11DFD
:10191000680F791F8A1F911DA11D6A0F711D811DFE
:10192000911DA11D20D009F468943F912AE0269FC3
:1019300011243019305D3193DEF6CF010895462F22
:101940004770405D4193B3E00FD0C9F7F6CF462F03
:101950004F70405D4A3318F0495D31FD405241936C
:1019600002D0A9F7EACFB4E0A69597958795779529
:101970006795BA95C9F700976105710508959B01B0
:10198000AC010A2E06945795479537952795BA9539
:10199000C9F7620F731F841F951FA01D0895AA1B0E
:1019A000BB1B51E107C0AA1FBB1FA617B70710F04A
:1019B000A61BB70B881F991F5A95A9F7809590957C
:1019C000BC01CD01089597FB092E07260AD077FDAB
:1019D00004D0E5DF06D000201AF4709561957F4FA2
:1019E0000895F6F7909581959F4F0895A1E21A2EDC
:1019F000AA1BBB1BFD010DC0AA1FBB1FEE1FFF1FB3
:101A0000A217B307E407F50720F0A21BB30BE40B02
:101A1000F50B661F771F881F991F1A9469F7609549
:101A20007095809590959B01AC01BD01CF01089503
:101A30002F923F924F925F926F927F928F929F92DE
:101A4000AF92BF92CF92DF92EF92FF920F931F93CC
:101A5000CF93DF93CDB7DEB7CA1BDB0B0FB6F8947D
:101A6000DEBF0FBECDBF09942A88398848885F84BD
:101A70006E847D848C849B84AA84B984C884DF802E
:101A8000EE80FD800C811B81AA81B981CE0FD11D12
:101A90000FB6F894DEBF0FBECDBFED010895EE0F77
:0E1AA000FF1F0590F491E02D0994F894FFCFFC
:101AAE004448543232204C69627261727920446526
:101ABE006D6F0052657175657374696E6720646130
:101ACE0074612E2E2E00476F7420446174612000C5
:101ADE004320002500496E74656765722D6F6E6C2C
:101AEE00792072656164696E673A2054656D706520
:101AFE00726174757265202568692E2530316869AA
:101B0E0020432C2048756D69646974792025692EEF
:101B1E002530316920252520524800636865636BA6
:101B2E002073756D206572726F72200042555320BE
:101B3E0048756E6720004E6F742050726573656E27
:101B4E0074200041434B2074696D65206F757420BD
:101B5E000053796E632054696D656F75742000446F
:101B6E006174612054696D656F75742000506F6CDF
:101B7E006C656420746F20717569636B20002E0094
:101B8E00000000002D03D404C802F702DB02190383
:00000001FF
